{
  "address": "0x209056E9F655BE10d9c14B99b5005CbE84dF0eEE",
  "abi": [
    {
      "inputs": [],
      "stateMutability": "nonpayable",
      "type": "constructor"
    },
    {
      "anonymous": false,
      "inputs": [
        {
          "indexed": true,
          "internalType": "address",
          "name": "token",
          "type": "address"
        },
        {
          "indexed": true,
          "internalType": "address",
          "name": "spender",
          "type": "address"
        },
        {
          "indexed": false,
          "internalType": "uint256",
          "name": "value",
          "type": "uint256"
        }
      ],
      "name": "Approve",
      "type": "event"
    },
    {
      "anonymous": false,
      "inputs": [
        {
          "indexed": true,
          "internalType": "address",
          "name": "usr",
          "type": "address"
        }
      ],
      "name": "Deny",
      "type": "event"
    },
    {
      "anonymous": false,
      "inputs": [
        {
          "indexed": true,
          "internalType": "address",
          "name": "usr",
          "type": "address"
        }
      ],
      "name": "Rely",
      "type": "event"
    },
    {
      "inputs": [
        {
          "internalType": "address",
          "name": "token",
          "type": "address"
        },
        {
          "internalType": "address",
          "name": "spender",
          "type": "address"
        },
        {
          "internalType": "uint256",
          "name": "value",
          "type": "uint256"
        }
      ],
      "name": "approve",
      "outputs": [],
      "stateMutability": "nonpayable",
      "type": "function"
    },
    {
      "inputs": [
        {
          "internalType": "address",
          "name": "usr",
          "type": "address"
        }
      ],
      "name": "deny",
      "outputs": [],
      "stateMutability": "nonpayable",
      "type": "function"
    },
    {
      "inputs": [],
      "name": "initialize",
      "outputs": [],
      "stateMutability": "nonpayable",
      "type": "function"
    },
    {
      "inputs": [
        {
          "internalType": "address",
          "name": "usr",
          "type": "address"
        }
      ],
      "name": "rely",
      "outputs": [],
      "stateMutability": "nonpayable",
      "type": "function"
    },
    {
      "inputs": [
        {
          "internalType": "address",
          "name": "",
          "type": "address"
        }
      ],
      "name": "wards",
      "outputs": [
        {
          "internalType": "uint256",
          "name": "",
          "type": "uint256"
        }
      ],
      "stateMutability": "view",
      "type": "function"
    }
  ],
  "transactionHash": "0x4f9e2d5a26a0660c40cfe6f2d4aabe32701213d43d6c91f26d87e4ea9902f5d1",
  "args": [],
  "numDeployments": 1,
  "solcInputHash": "efada911f35c819298d910433fd20fac",
  "bytecode": "0x608060405234801561001057600080fd5b506100226001600160e01b0361002716565b61012e565b600054610100900460ff168061004957506100496001600160e01b0361010d16565b80610057575060005460ff16155b6100925760405162461bcd60e51b815260040180806020018281038252602e815260200180610637602e913960400191505060405180910390fd5b600054610100900460ff161580156100bd576000805460ff1961ff0019909116610100171660011790555b33600081815260016020819052604080832091909155517fdd0e34038ac38b2a1ce960229778ac48a8719bc900b6c4f8d0475c6e8b385a609190a2801561010a576000805461ff00191690555b50565b60006101223061012860201b61047f1760201c565b15905090565b3b151590565b6104fa8061013d6000396000f3fe608060405234801561001057600080fd5b50600436106100575760003560e01c806365fae35e1461005c5780638129fc1c146100845780639c52a7f11461008c578063bf353dbb146100b2578063e1f21c67146100ea575b600080fd5b6100826004803603602081101561007257600080fd5b50356001600160a01b0316610120565b005b6100826101c6565b610082600480360360208110156100a257600080fd5b50356001600160a01b03166102a3565b6100d8600480360360208110156100c857600080fd5b50356001600160a01b0316610346565b60408051918252519081900360200190f35b6100826004803603606081101561010057600080fd5b506001600160a01b03813581169160208101359091169060400135610358565b336000908152600160208190526040909120541461017f576040805162461bcd60e51b8152602060048201526017602482015276130c515cd8dc9bddcbdb9bdd0b585d5d1a1bdc9a5e9959604a1b604482015290519081900360640190fd5b6001600160a01b038116600081815260016020819052604080832091909155517fdd0e34038ac38b2a1ce960229778ac48a8719bc900b6c4f8d0475c6e8b385a609190a250565b600054610100900460ff16806101df57506101df610485565b806101ed575060005460ff16155b6102285760405162461bcd60e51b815260040180806020018281038252602e815260200180610497602e913960400191505060405180910390fd5b600054610100900460ff16158015610253576000805460ff1961ff0019909116610100171660011790555b33600081815260016020819052604080832091909155517fdd0e34038ac38b2a1ce960229778ac48a8719bc900b6c4f8d0475c6e8b385a609190a280156102a0576000805461ff00191690555b50565b3360009081526001602081905260409091205414610302576040805162461bcd60e51b8152602060048201526017602482015276130c515cd8dc9bddcbdb9bdd0b585d5d1a1bdc9a5e9959604a1b604482015290519081900360640190fd5b6001600160a01b038116600081815260016020526040808220829055517f184450df2e323acec0ed3b5c7531b81f9b4cdef7914dfd4c0a4317416bb5251b9190a250565b60016020526000908152604090205481565b33600090815260016020819052604090912054146103b7576040805162461bcd60e51b8152602060048201526017602482015276130c515cd8dc9bddcbdb9bdd0b585d5d1a1bdc9a5e9959604a1b604482015290519081900360640190fd5b816001600160a01b0316836001600160a01b03167f6e11fb1b7f119e3f2fa29896ef5fdf8b8a2d0d4df6fe90ba8668e7d8b2ffa25e836040518082815260200191505060405180910390a3826001600160a01b031663095ea7b383836040518363ffffffff1660e01b815260040180836001600160a01b03166001600160a01b0316815260200182815260200192505050600060405180830381600087803b15801561046257600080fd5b505af1158015610476573d6000803e3d6000fd5b50505050505050565b3b151590565b60006104903061047f565b1590509056fe496e697469616c697a61626c653a20636f6e747261637420697320616c726561647920696e697469616c697a6564a2646970667358221220c516cf221e586bc9bac91ddab9263c5cbedf2ea34f9f36b1a05e0be9bb46005d64736f6c634300060b0033496e697469616c697a61626c653a20636f6e747261637420697320616c726561647920696e697469616c697a6564",
  "devdoc": {
    "kind": "dev",
    "methods": {},
    "version": 1
  },
  "userdoc": {
    "kind": "user",
    "methods": {},
    "version": 1
  },
  "storageLayout": {
    "storage": [
      {
        "astId": 116,
        "contract": "contracts/l1/L1Escrow.sol:L1Escrow",
        "label": "_initialized",
        "offset": 0,
        "slot": "0",
        "type": "t_bool"
      },
      {
        "astId": 119,
        "contract": "contracts/l1/L1Escrow.sol:L1Escrow",
        "label": "_initializing",
        "offset": 1,
        "slot": "0",
        "type": "t_bool"
      },
      {
        "astId": 2508,
        "contract": "contracts/l1/L1Escrow.sol:L1Escrow",
        "label": "wards",
        "offset": 0,
        "slot": "1",
        "type": "t_mapping(t_address,t_uint256)"
      }
    ],
    "types": {
      "t_address": {
        "encoding": "inplace",
        "label": "address",
        "numberOfBytes": "20"
      },
      "t_bool": {
        "encoding": "inplace",
        "label": "bool",
        "numberOfBytes": "1"
      },
      "t_mapping(t_address,t_uint256)": {
        "encoding": "mapping",
        "key": "t_address",
        "label": "mapping(address => uint256)",
        "numberOfBytes": "32",
        "value": "t_uint256"
      },
      "t_uint256": {
        "encoding": "inplace",
        "label": "uint256",
        "numberOfBytes": "32"
      }
    }
  }
}